:020000040800F2
:1060000000100020896A0008659C0008699C00084F
:10601000158301086D9C0008759C00081F7A010813
:106020001F7A01081F7A01081F7A01081F7A0108E8
:10603000799C0008E8DF01081F7A01081F7A01082F
:10604000CD6900081F7A01081F7A01081F7A01082C
:106050001F7A01081F7A01081F7A01081F7A0108B8
:106060001F7A0108D1C400081F7A01081F7A0108AD
:106070001F7A01081F7A01081F7A01081F7A010898
:106080001F7A01081F7A01081F7A01081F7A010888
:106090001F7A0108E16F00081F7A01081F7A0108C2
:1060A0001F7A0108D5700008B17000081F7A010836
:1060B0001F7A0108916C010829770108F3DE0108B5
:1060C000EFDE0108C56E0108FFDE0108F7DE0108FA
:1060D000FD760108FBDE010869770108D577010824
:1060E0001F7A01081F7A01081F7A01081F7A010828
:1060F0001F7A01081F7A01081F7A01081F7A010818
:106100001F7A01081F7A01081F7A01081F7A010807
:106110001F7A01081F7A01081F7A01081F7A0108F7
:106120001F7A01081F7A01081F7A01081F7A0108E7
:106130001F7A01081F7A01081F7A01081F7A0108D7
:106140001F7A01081F7A01081F7A0108A18301083C
:10615000855301081F7A0108DDDE0108E3DE01082E
:106160001F7A01081F7A01081F7A01081F7A0108A7
:10617000F0B5114A114C124E00F00105E3695F07BA
:1061800013D40DB9334213D103EA00078F4207D16C
:106190000B4A1A40002A0CBF00206FF00100F0BD2E
:1061A000013AEBD16FF00200F9E74FF0FF30F6E76C
:1061B0006FF00100F3E700BF8096980000000350E5
:1061C000020001000B4B70B5D96911F480310DD17B
:1061D00001244FF48072084E084DF46020462C6470
:1061E0001A61FFF7C5FF3464EC6070BD6FF0010009
:1061F000FBE700BF000003500010035000200350D5
:106200004FF4803238B50E4B0E4C9A66E56941F674
:10621000713315400122E3630B4B0021DA60022346
:10622000606121202361FFF7A3FF10B92120FFF750
:106230009FFF0122054BDA600DB10023E36338BDF7
:106240000090005000000350001003500020035045
:1062500070B5134C6061E3695B071ED40E4656F8B7
:10626000043B8D18A361AE420BD1042300212120F1
:106270002361FFF77DFF58B9BDE870402120FFF78B
:1062800077BF08210846FFF773FF10B1042323618D
:1062900070BD56F8043BA361E5E74FF0FF30F7E728
:1062A000000003502DE9F84315464FF48032184B97
:1062B00089469A6603F51C33DF690646174041F6A6
:1062C0007132DA63012203F58053DFF84C80DA6023
:1062D00055B9284601220F4BDA601FB10022A3F501
:1062E0000053DA63BDE8F88306F5005404EA0804B5
:1062F000A41BAC4228BF2C46494622463046FFF735
:10630000A7FF0028E6D12644A1442D1BE0E700BFEB
:10631000009000500020035000E0FFFF000000004C
:10632000000000000000000000000000000000006D
:106330002DE9F84F40220021294816F09CF930221F
:106340000021284816F097F900209FED237B264B6B
:10635000264E274ADFF888B0DFF8ACA0DFF8AC9013
:10636000DFF8AC80DFF8ACE01E4FA3F1180C242559
:10637000002145430BEB401443E9054A0CEB0504AF
:1063800043E9039843F8181C43F804EC2177216291
:10639000182404FB007442F8144C164C42F8181CE4
:1063A00042F8104C144CA6EC027B42F80C4C134CF7
:1063B00043F8241B42F8084C114C42F8044C114C91
:1063C0002C442177216242F8241B08B1BDE8F88FE4
:1063D0000120CCE7AFF300800000000000000000C7
:1063E000FC330020CC3300209C330020F010002030
:1063F00054330020D9AB0008058401082384010828
:10640000598401083C33002001AC00083F84010896
:1064100027840108AB840108F7B5012004F084FD4E
:106420000446002840F0A980574E584B584DC6E905
:10643000003041F60B23B0602860AB8005F078FE99
:10644000214630460AF002FA044600B9FEE75149F7
:106450000AF03CFD00B1FEE70221204617F099F852
:1064600000B1FEE720464C490AF040FF00B1FEE7CC
:106470000121204617F046FA00B1FEE7012120462F
:1064800017F04EFA074600B1FEE701463C224348AA
:1064900016F0F1F880233A46204606F1100117F075
:1064A0004FF9802800D0FEE73D4E01200AF024FA83
:1064B00033A3D3E9002334602046CDE900234FF015
:1064C000FF324FF0FF3317F0B0F800B1FEE70621BE
:1064D000284604F06DFD0121084604F055FD012118
:1064E000306816F0EEFF00B1FEE700222D4B2E497A
:1064F0009A801A602D4B6FF063001960FF219A801B
:106500002B4B9A802B4A83F820101A602A4ADA60B3
:1065100006F0CEFC2B790B2B11D86B790A2B0ED9F8
:10652000264B1D6003F038F8062005F0F3FD082225
:106530003068114617F07BF8044608B1FEE7FEE725
:1065400005F0E0FD1E4B10211E481C7012F087FA6A
:1065500000B9FEE71C491B4812F093FA00B9FEE7A8
:1065600010218C20194A11F074FE00B1FEE7184882
:1065700003B0BDE8F04012F07CBC03B0F0BD00BF3A
:106580000AE020FF220200009834002079B20008BF
:10659000903400200700110070E801084834002002
:1065A0008834002060110020CE3D002038110020EA
:1065B000101100204E3D0020001100208C340020DE
:1065C000503E00203C350020678901082C35002012
:1065D00064E801080348044B834202D0034B03B133
:1065E00018477047B8430020B8430020000000005F
:1065F000064B0749C91A891048BF0131491003D019
:10660000044B0BB101481847704700BFB843002046
:10661000B84300200000000010B5064C237843B9B1
:10662000FFF7D8FF044B13B10448AFF300800123F8
:10663000237010BD283D002000000000E04102084A
:1066400008B5054B1BB105490548AFF30080BDE80F
:106650000840FFF7CDBF00BF000000002828002041
:10666000E0410208A3F5803A704700BF174B002BAA
:1066700008BF134B9D46FFF7F5FF00218B460F46E1
:106680001348144A121A15F0F6FF0E4B002B00D0D7
:1066900098470D4B002B00D09847002000210400A4
:1066A0000D000D48002802D00C48AFF3008008F020
:1066B00097F82000290015F001FF08F07FF800BFCF
:1066C0000000080000000000000000000010002092
:1066D000A0100020A03F00200000000000000000EB
:1066E0004FF000639B6A03F17842B2F5C04F03D2CA
:1066F0001968064A914203D00023037083607047F3
:10670000012202709A689B694260F7E707B0CD5E8C
:106710004FF00053014A1A6003F02CBA02020FF046
:1067200073B54F4B04461A781AB102221A7002B0A0
:1067300070BDCDE900220028F9D001261E7011F0AD
:1067400052F9484D484B18600DF01CFD2B785BB991
:1067500000F0D2FC40B945480823454A4549006845
:1067600009F072FE00B92E70434B5A6E62619B6E47
:10677000424AA3614FF480439366414B5968E161FB
:1067800040499960196E2160596E6160D3F87011AB
:10679000A160196CE160596C21613B49086C186477
:1067A000496C5964012151661B6E9C0441D5374ADE
:1067B000D368D807FCD4364B1A68531C3ED04FF42C
:1067C00080139340334A13664FF400730426314C10
:1067D0002666236611F0CCF801300DD011F0C8F810
:1067E00040F20113984207D04FF4005323664FF450
:1067F00080432366C4F870610823264C68462366EC
:106800004FF4805323664FF0006323664FF4002358
:1068100001A9636611F090F8009B2366019B6366F3
:106820002B78002B83D0124B1A6822665B68636654
:106830007DE7194AD368D907FCD4BCE7174B1B780E
:10684000002BC1D14FF400720C4B5A6603F5A623FE
:106850005B68002BB8D14FF480120E4B1A66B3E779
:106860002A3D00202B3D002060280020944100207C
:106870006428002000710800008000500090005043
:106880000080004455CEAC0000C00054000004401D
:10689000604100200090004400000450293D002089
:1068A00070B5224D04462E78012E02D001232B70A4
:1068B00070BD0028FCD011F05BF801300BD011F056
:1068C00057F840F20113984205D0194B194A5E66F9
:1068D000D368DE07FCD42268174B1A6662685A66D2
:1068E000A268C3F87021E2681A6422695A64E269F6
:1068F000D00744BF00229A60104B1A68013207D1BA
:106900000F4A127822B90F494968C90748BF1A606F
:1069100062690D4B5A66A2699A660DF03BFC0B4BFF
:10692000186811F066F80023C1E700BF2A3D002077
:1069300000900040000004400080004460410020BE
:10694000293D002000C00550008000506028002034
:10695000F8B54FF00066B36A03F17842B2F5C04F64
:1069600026D21A68144B9A4222D1144D2C7814F076
:10697000FD0402D000242046F8BD4FF480371048B3
:10698000FFF7CEFE204603F04BF90E4B2046DF60AA
:1069900003F002F90C4B1F61B36ADB6998470446A8
:1069A0000748FFF77DFF002CE5D101232B70E1E7BD
:1069B0004FF48174DFE700BF07B0CD5E293D0020B2
:1069C0004028002000A000440090004413B5214B53
:1069D0001B7803B9FEE700231F4CCDE900336A465C
:1069E00008231E49206809F02FFD00BB1C4AD2F87D
:1069F0004031D2F840211F2B4FF0010312D9203A29
:106A00009340019A1A43019208236A461349206869
:106A100009F0D0FC4FF00053124A1A6003F0AAF8B4
:106A200002B010BD9340009A1A430092ECE70E4B5F
:106A30009842EFD10A4AD2F84031D2F840211F2BB8
:106A40004FF0010385BF203A93409340019398BFD4
:106A50000093D9E72A3D00209441002000710800EE
:106A6000008000440B020FF00BE000F00348044AE2
:106A70000449121A921010F0D3BF00BF70610008D1
:106A800030630008A03F002008B500F02FF8FFF7A2
:106A9000EDFF124B12498B4212D30020114B1249C9
:106AA0008B4218D3FFF7E2FD186850F8224058686F
:106AB00040F82240013298688242F5D30C33EAE76D
:106AC0000022F8E71C6844F8220001325C68A24208
:106AD000F8D30833E4E70022F8E700BFE8410208F2
:106AE000F4410208F4410208F44102084FF48041E5
:106AF000124B134A70B59A60D3F88820114D42F4B6
:106B00007002C3F88820104A05F5005491664FF0D2
:106B1000FF3222660D4A62660222C3F8D020BFF31C
:106B20004F8FBFF36F8F4FF44036002003F078F89B
:106B30000020E66003F030F82E6170BD00ED00E04B
:106B4000006000080080004400900050F7FF37000C
:106B5000014B1868704700BF68410020014B186066
:106B6000704700BF68410020084B1B6F03F007030C
:106B7000022B04D0032B05D0012B05D0FEE7044BDC
:106B800018687047034BFBE70348704700800050CC
:106B90006841002070410020002D310108B5FFF749
:106BA000E3FF054B1B6FC3F303330133B0FBF3F07B
:106BB000024B186008BD00BF0080005064410020F7
:106BC0000048704700B4C404014B1868704700BF08
:106BD00070410020054B1860054B1B6F03F0070345
:106BE000032B01D1FFF7DABF704700BF70410020CF
:106BF0000080005000487047002D31014FF0B44331
:106C00009868C0F304400C280AD8DFE800F00B09AC
:106C100009090909072119091B1D1F000F487047A1
:106C2000002070479B6803F04073B3F1807F11D060
:106C3000B3F1007F10D00A4A002B08BF10467047FE
:106C40000848704708487047084870470848704728
:106C5000084870470848704708487047405DC600BC
:106C600000093D00C0EA210180BA8C010048E8011A
:106C7000005A62020024F40080841E0040420F008B
:106C8000014B1868704700BF6C4100202DE9F04FA0
:106C90009A46564B85B01B7806460F461546DDF8DA
:106CA0003C909DF844B0DDF85080002B00F09780B8
:106CB000072A00F296800E9B002B00F09280B9F11B
:106CC000000F00F08E80129BB3F5006F00F38980F7
:106CD000012803D1109B002B00F08380444B03EB71
:106CE00005131B7B002B7ED0424C102200216846EE
:106CF00015F0C1FC04EB45141022A7BB3946204611
:106D000015F0B9FC43F210036380BBF1000F03D10F
:106D1000E37843F00303E370364A0E9B02EB451C15
:106D2000CCE90193129B6901581E9DF84C30C0F3C9
:106D30000A0003F003039B0643EA001E53582E4843
:106D4000012E00EA03004EEA0003CDF800A05350E4
:106D500017D0B8F1000F2ED19CF8023068F304135D
:106D60008CF8023027E00021204615F084FC4FF417
:106D700044736380BBF1000FCED1E37843F030035E
:106D8000C9E713230CF1100ECCF80C309CE80F006F
:106D90008EE80F006FF00301DCF81C20109B61F3FC
:106DA0009F02012FCCF81C20CCF8143003D1CCF872
:106DB0001890CCF8043000270D4A290102EB051386
:106DC00042F80180159A28465A60694622469F601B
:106DD0005E7302F09FF8384605B0BDE8F08F0748B3
:106DE000FAE70748F8E70748F6E700BF2C3D002020
:106DF0006C2900206C2800200F80FFF3028000F037
:106E0000018000F0078000F038B5124B05461B7872
:106E1000DBB1E0B110F0E7FD0F4A00231146147B0F
:106E200054B92B6001251A0101EB03131D738C501B
:106E300010F0DFFD204638BD0133082B02F11002AF
:106E4000EDD110F0D6FD0548F5E70548F3E7054814
:106E5000F1E700BF2C3D00206C290020048000F0E9
:106E6000028000F0018000F0154B13B51868002374
:106E700001908DF8043010F0B6FD124B1C7824B14F
:106E800010F0B7FD104802B010BD01221A7010F0CA
:106E9000B0FD0E4B01A81C731C7783F82C4083F8BF
:106EA0003C4083F84C4083F85C4083F86C4083F8A6
:106EB0007C4008238DF8073001F0FCFF2046E2E714
:106EC00038E001082C3D0020038000F06C290020F0
:106ED0000A4A08B512785AB107280BD8084A02EBBB
:106EE00000131B7B43B1002101F0D6FF002008BD39
:106EF0000448FCE70448FAE70448F8E72C3D002082
:106F00006C290020028000F0018000F0078000F072
:106F10000A4A08B512785AB107280BD8084A02EB7A
:106F200000131B7B43B1012101F0B6FF002008BD17
:106F30000448FCE70448FAE70448F8E72C3D002041
:106F40006C290020028000F0018000F0078000F032
:106F50000C4B1B787BB107280FD871B10A4B03EBA0
:106F600000131B7B5BB1094BDB6AC34003F00103D9
:106F700000200B7070470648704706487047064867
:106F8000704700BF2C3D00206C29002000000450F9
:106F9000028000F0018000F0078000F00B4A10B57D
:106FA00012780C4662B107280CD859B1084A02EB96
:106FB00000131B7B43B101F0F9FF2060002010BDDE
:106FC0000448FCE70448FAE70448F8E72C3D0020B1
:106FD0006C290020028000F0018000F0078000F0A2
:106FE000184B2DE9F0411F6D5B6D1F4000D5FEE78A
:106FF00001260025144CDFF85880374218D023684A
:10700000C8F85060A3B1A168284601316268A16048
:107010009847637B012B0BD150B90C4B03EB451305
:107020001A7B60F341021A731A7F60F341021A77E8
:107030000135082D4FEA460604F11004DDD1BDE804
:10704000F08100BF000004506C2900206C28002053
:107050000020045070B5044601250B4E04B970BDE4
:1070600094FAA4F0B0FA80F005FA00F306EB0012EF
:1070700024EA03045368002BF0D0117B11B191680E
:107080009847EBE79847E9E7EC29002038B5054633
:107090000C4610F0A8FC0022044B03EB05135C60C7
:1070A0001A73BDE8384010F0A4BC00BFEC290020E2
:1070B000074BD3F82404D3F8202403F500531040E1
:1070C00000F0553020F05020C3F82004FFF7C2BF75
:1070D00000C00350074BD3F82404D3F8202403F551
:1070E0000053104000F0AA3020F0A020C3F8200484
:1070F000FFF7B0BF00C00350024B1968024B18687D
:1071000009F07EB8744100209441002070B59400CD
:10711000224605460E4616F05FFF431C0AD058B9BA
:1071200022463146284615F07CFA0028034808BF5D
:10713000002070BD0248FCE70248FAE710E000F0CA
:1071400021E000F024E000F010B5044616F048FFFE
:10715000431C10D088B901F0D3FF234620F0030070
:107160002044984201D1002010BD53F8042B013275
:10717000F7D00348F8E70348F6E70348F4E700BF11
:107180000EE000F021E000F024E000F008B510F07F
:107190001FFC014B186008BDDC320020014B186851
:1071A00010F01ABCDC32002038B141B1013AB2F51E
:1071B000006F044838BF00207047034870470148FB
:1071C000704700BF037000F0027000F0104930B546
:1071D0000A78104B2AB9C3E90022C3E9022201222E
:1071E0000A700C4900220C4654F8045B854208D012
:1071F0000132042AF8D1002251F8044B1CB943F89B
:107200002200002030BD0132042AF5D10248F9E7FE
:107210002D3D0020E0320020027000F038B5044619
:107220000D4610F0E0FBA3889BB223B92B6010F051
:10723000E0FB064838BD142263889BB202FB03447E
:1072400008342C6010F0D5FB0020F3E70B7000F041
:1072500010B50446FFF708FE002104F10800FFF70F
:10726000D3FD014608B1044810BD04F10C00FFF73E
:10727000CBFD0028F8D0F6E70E7000F0F8B5044614
:1072800016460F4610F0AFFBA388E2889BB29A42E5
:10729000054605D80023336010F0ABFB1748F8BD56
:1072A0001422238807F1100C9BB202FB03433A46D9
:1072B0000833174603CF6745186059603A4603F113
:1072C0000803F6D1142238681860238828469BB238
:1072D00002FB0343083333602388E2889BB2013307
:1072E000B3FBF2F102FB11339BB22380A38801337D
:1072F0009BB2A38010F07DFB0020D0E70A7000F065
:107300007FB5012380F8303090F836309BB90368A0
:107310002433826B013282630C4A04900392002270
:1073200002924A680192012200920A684169C0688B
:1073300010F0A4FB07E0022B02D103683C33E8E71E
:10734000002380F8303007B05DF804FBA579000811
:107350007FB5012380F8313090F836309BB9026850
:107360003C32836B013383630C4B04900393002303
:1073700002934B680193012300930B6801698068B5
:1073800010F062FB07E0022B02D102684432E8E70A
:10739000002380F8313007B05DF804FB1175000858
:1073A00090F83530022B0DD114223023417F13FB8E
:1073B0000123054A9B5890F8212023FA02F000F09F
:1073C000010070470020704730C00350002313B500
:1073D0001D4A52F8044B94F8211081420ED001331B
:1073E000042BF6D102B010BD0028FBD19DF8073068
:1073F000002BF7D0A068FFF76BFDF3E794F835306A
:10740000022BEFD12046FFF7CBFF637E2076022BC5
:10741000E8D194F8323003F0FF02002BE2D1A068EB
:107420000DF107018DF80720FFF792FD237E1BB1B8
:1074300094F83330002BD7D00023A06884F8333081
:10744000FFF766FDCEE700BFE032002090F836304F
:1074500053B9042103790A4A03F239135B01D1506D
:10746000022203685A617047022B07D10068816CC1
:1074700011F0020118BF062110F0A6BC704700BF32
:1074800000C0035090F8363063B9012203685A6196
:107490009A69D207FCD504210379084AB9335B0104
:1074A000D1507047022B07D10068836C9B074CBFFB
:1074B0000521092110F088BC704700BF00C00350AF
:1074C00010B590F83630044663B9042203685A6157
:1074D0009A699207FCD523790C4AB9335B011021D4
:1074E000995010BD022BFCD10068836CDB074CBFA8
:1074F0000521062110F068FC237941F294425B01DA
:1075000003F1A04303F57033E9E700BF00C0035067
:107510002DE9F3411446D06A01A9FFF77FFEA36B62
:10752000A36B013BA363164B984222D00027019D19
:107530002F61AF6010F057FAD5F80C800646B8F10D
:10754000000F04D0D5E9002339462046C047E06A41
:1075500001A910F069FBE06A83889BB26BB101A9B5
:10756000FFF75CFE20460199FFF7F2FE304610F06F
:1075700040FA012002B0BDE8F08184F83130F5E72F
:107580000B7000F02DE9F04104461746FFF70CFEA2
:1075900088460646E8B9152002F01AFB0546E26A5D
:1075A00093889BB213B194F83230ABB194F8363073
:1075B000BBB923689D6915F0020527D0012384F823
:1075C00034304744B845206844D183699B06FCD5D4
:1075D00045B33046BDE8F081002DE1D0FFF700FD56
:1075E000DDE7022B12D123689D6C15F002050DD04A
:1075F000012384F8343047444745206831D142F2B2
:107600002002836C32EA0303FBD1E1E72046FFF757
:1076100057FF012394F8365084F83430002DD0D031
:10762000022D1CD094F8363003B3022BD1D1206840
:10763000816C11F0010118BF092110F0C5FB42F265
:107640009442102123795B0103F1A04303F57033C9
:107650009950BEE718F8011B10F006FCB2E70025B0
:10766000C9E718F8011B10F0B4FBC5E71021237916
:10767000044A03F239135B01D150082223685A618E
:10768000A7E700BF00C0035010B5044680B190F8D2
:1076900032302BB9FFF784FE10B9A068FFF718FC51
:1076A000002094F832300133DBB284F8323010BD60
:1076B0000048FCE7027000F010B50446A0B190F855
:1076C00032309BB190F83230012B05D1FFF768FEC4
:1076D00010B9A068FFF71CFC002094F83230013B81
:1076E000DBB284F8323010BD0148FCE70148FAE70C
:1076F000027000F0057000F037B590F83550044680
:10770000022D1DD1012290F82230457E817F9A40C2
:107710003020164B3DB900FB013303F501531A60CD
:10772000002003B030BD012D04D100FB013303F56F
:107730008253F4E7247E00FB0133002CF7D1ECE701
:10774000012DEDD1037E73B911238DF80730FFF7BA
:107750009BFF2A4620460DF10701FFF713FF204645
:10776000FFF7AAFFDCE71323EFE700BF00C00350D9
:107770002DE9F04305466C4F89B001AE0C460FCFA2
:107780000FC697E8070086E80700002D00F0CA80C2
:1077900024B9664E304609B0BDE8F083602200216E
:1077A000284614F068FF2846FFF710FD064600281B
:1077B000F0D1237D85F83530236885F836002B60BD
:1077C000227B2A715A4A9342E3D15A4B5A4A6B623E
:1077D0004FF48023C5E90423D4E90723AA6210806B
:1077E0005080908085F83000EB6218805880988037
:1077F000636885F831000393E38985F83300ADF8B9
:107800001430238A8046ADF81230A37C4B488DF8A3
:107810001030E37C4A4F8DF8163005238DF8113077
:1078200010F05EFC6B6A986810F05AFC206801A9A1
:107830008DF8046001F0C0FC1421237B03F13902B0
:107840005201B950267AA07A07EB431346EA004268
:10785000C3F83827617AE27A41EA024CC3F830C7AC
:10786000EE76E877297785F82020637D01216B7714
:10787000A37D284685F82130E37DAB77237E85F80C
:10788000223010F062F90646002883D110F0ABF8E0
:10789000237D8146032B33D10221227B02F1B903E0
:1078A0005B01F950042107EB421741F22C72236867
:1078B00003F58053D965217EE37D43EA0143BB5044
:1078C000A27D637D43EA024341F22872BB504FF030
:1078D000FF32206800F500539A64237D032B0CBF10
:1078E0000521042110F0B1FA4FF4406223682846C4
:1078F0005A61FFF7ADFC0646484610F07AF849E7B2
:10790000022BE4D195F821000E49FFF7BFFB10F0E0
:10791000CFF84FF4007328462B8385F81A80FFF7C1
:10792000EBFED4E7084E35E760E00108037000F095
:1079300000C0055060E70108020004005CE7010890
:1079400000C00350CD730008027000F0F0B587B09E
:1079500005461646FFF728FC0446F0B90493104B81
:10796000CDE901166A46A86A01A903960593FFF7B7
:1079700085FC044688B995F8303073B92846FFF77E
:1079800081FD28460099FFF7BBFC95F83530032BA5
:1079900003D028462C76FFF7AFFE204607B0F0BD97
:1079A000017000F0F7B51446906A01A9FFF736FCA4
:1079B000A36BA36B013BA363384B984230D094F880
:1079C0003610019D002939D123689A6C12F4007297
:1079D00029D0334AA9602A614FF4007203F500539D
:1079E0009A6410F000F8EF68064637B16A68AB6831
:1079F0002046D31A29692A68B847A06A01A910F05D
:107A000013F9A06A8588ADB2002D37D001A9FFF720
:107A100005FC20460199FFF773FC30460FF0E9FFA3
:107A2000012003B0F0BD996CC80523D51D49AA609B
:107A300029614FF4807203F50053D1E7022919D16F
:107A40002368DA6C12F4007209D0154A03F500536A
:107A50002A610022AA604FF40072DA64C1E7D96C8F
:107A6000C90507D50F49AA6029614FF4807203F553
:107A70000053F2E700232B61AB60B2E701232046FD
:107A80002376FFF739FE94F8353084F83050032B15
:107A9000C3D02046FFF7DAFCBFE700BF0B7000F051
:107AA0000D7000F00C7000F0F0B587B0044616467B
:107AB000FFF77AFB054658BB0493194BCDE9011635
:107AC000059394F8363003962BBB23689B6903F02B
:107AD000020313B92046FFF7F3FC6A46E06A01A9E6
:107AE000FFF7CCFB054698B994F8313083B90FF015
:107AF0007AFFE36A06469B889BB233B12046009921
:107B0000FFF726FC012384F8343030460FF071FF74
:107B1000284607B0F0BD022BDCD123689B6CD6E76A
:107B2000017000F0044BD3F88420D206FBD4D3F8C4
:107B30008400C0F381107047004000502E4B9842E3
:107B40004AD022D82D4B984240D014D82C4B984282
:107B500039D00AD82B4B984232D02B4B98422FD099
:107B60002A4B98422CD000207047294B9842FAD1DA
:107B7000284B186F7047284B98422AD0274B9842C1
:107B8000F1D1244BD3F880007047254B98422BD07D
:107B900009D8244B984223D0234B9842E3D11D4B64
:107BA000D3F88C007047214B984221D003F5740321
:107BB00003F510539842D6D1164BD3F8980070476E
:107BC000144B986D7047134B586E7047114B586F9C
:107BD0007047104B986F70470E4BD3F88400704776
:107BE0000C4BD3F8880070470A4BD3F890007047CD
:107BF000084BD3F8940070470048E8010024F400D3
:107C0000C0CF6A0080841E0000093D0040420F0082
:107C1000405DC6000080E00FC0EA210180BA8C01FF
:107C2000007E560380D54302006CDC020090D00336
:107C300038B5104B0546D3F880300C4603F00303EB
:107C4000022B0BD0032B0DD0012B0FD1FEF78CFF95
:107C50000E2305B1286004B1236038BDFEF7CEFFC6
:107C60000723F6E7FEF774FF0623F2E70023184622
:107C7000EFE700BF0080005038B5184B0546D3F839
:107C800020010C4600F00700062823D8DFE800F0AA
:107C9000040A0E16121A1E00012305B1286004B151
:107CA000236038BDFEF754FF0523F6E7FEF78CFF8F
:107CB0000323F2E7FEF7A2FF0723EEE7FEF79AFFA2
:107CC0000223EAE7FEF744FF0623E6E7FEF77CFF20
:107CD0000423E2E700231846DFE700BF00800050DE
:107CE00038B5174B0546D3F828310C4603F0070387
:107CF000013B052B20D8DFE803F003131B0F0B1704
:107D0000FEF726FF052305B1286004B1236038BDC6
:107D1000FEF71EFF0623F6E7FEF770FF0723F2E7E4
:107D2000FEF752FF0323EEE7FEF74EFF0423EAE7D8
:107D3000FEF760FF0223E6E700231846E3E700BFF3
:107D40000080005073B50D460021114B0191D3F80E
:107D50008041064604F00304022C13D0032C0CD0FF
:107D6000012C13D101A8FFF787FF10240EB1019B4E
:107D7000336005B12C6002B070BDFEF73FFF0724F1
:107D80000190F3E7FEF736FF0190EFE70C46EDE7D1
:107D900000800050002337B50193164B0546D3F8F9
:107DA00020320C4603F00703042B21D8DFE803F050
:107DB000030B11161B0001230DB1019A2A6004B1B7
:107DC000236003B030BD002101A8FFF789FF122313
:107DD000F2E7FEF713FF07230190EDE70FF02EFE09
:107DE0000A230190E8E7FEF74BFF09230190E3E740
:107DF0000023E1E70080005038B5104B0546D3F86A
:107E000040310C4603F00303022B0BD0032B0DD0A3
:107E1000012B0FD10FF012FE0A2305B1286004B127
:107E2000236038BDFEF72CFF0923F6E70FF009FEAB
:107E30000C23F2E701230020EFE700BF0080005091
:107E4000002337B50193164B0546D3F860320C4634
:107E500003F00703013B032B1FD8DFE803F0020EFA
:107E60001914002101A8FFF707FF10230DB1019A93
:107E70002A6004B1236003B030BD002101A8FFF7E0
:107E8000BBFF1123F2E7FEF7B9FE07230190EDE7F0
:107E9000FEF7B0FE02230190E8E70023E6E700BF0B
:107EA00000800050002337B50193164B0546D3F8E8
:107EB00094320C4603F00703013B032B1FD8DFE885
:107EC00003F0020E1914002101A8FFF7D5FE1023BC
:107ED0000DB1019A2A6004B1236003B030BD0021C6
:107EE00001A8FFF789FF1123F2E7FEF787FE0723BA
:107EF0000190EDE7FEF77EFE02230190E8E7002304
:107F0000E6E700BF0080005038B5144B0546D3F8B3
:107F100000020C4600F0070004281BD8DFE800F040
:107F200003090D111500012305B1286004B1236078
:107F300038BD0FF083FD0A23F6E7FEF7A1FE092303
:107F4000F2E70FF07EFD0C23EEE7FEF727FE0F238E
:107F5000800AE9E700231846E6E700BF00800050EA
:107F600038B5144B0546D3F808020C4600F007005C
:107F700004281BD8DFE800F003090D1115000123C8
:107F800005B1286004B1236038BD0FF057FD0A2306
:107F9000F6E7FEF775FE0923F2E70FF052FD0C231A
:107FA000EEE7FEF7FBFD0F23800AE9E70023184602
:107FB000E6E700BF0080005038B5104B0546D3F807
:107FC00040320C4603F00303022B0BD0032B0DD0E1
:107FD000012B0FD10FF032FD0A2305B1286004B147
:107FE000236038BDFEF74CFE0923F6E70FF029FDAC
:107FF0000C23F2E701230020EFE700BF00800050D0
:1080000038B5104B0546D3F860310C4603F0030336
:10801000022B0BD0032B0DD0012B0FD10FF00EFD37
:108020000A2305B1286004B1236038BDFEF728FE9D
:108030000923F6E70FF005FD0C23F2E701230020EA
:10804000EFE700BF00800050B0F5207F1FD009D8B7
:10805000B0F5007F15D003D868B1B0F5C07F0AD065
:1080600000200CE0B0F5607FFAD10B4BD3F8800014
:10807000C0F3011003E0084B186FC0F30330013068
:108080007047054BD3F89000C0F30460F7E7024B4C
:10809000186FC0F38020F2E70080005002464FF4D2
:1080A0008030104B10B598660020FFF7CDFF50438D
:1080B00041F671320C4BDC69DA635A6804F480349F
:1080C00022F4401259B90949884294BF0020012086
:1080D000000502435A600CB10022DA6310BD044966
:1080E000F2E700BF0090005000000350005A620207
:1080F000002D3101430905D0012B0CD0022B084B78
:1081000018BF002300F01F0039B103F5805301228E
:1081100082401A607047034BF4E703F50053F6E71B
:1081200068800050648000501FB5002180280446FC
:10813000CDE9001100F0A58035D85E2846D85E282C
:1081400044D8DFE800F0A24343434343434343435F
:1081500043434343434343434343434343434343EF
:10816000434343434343A2AAA2AABABABABABAAA99
:10817000C44DDA714DAAAAAA434343434343434340
:10818000AAAAAA79E4AA434343434343434343434C
:10819000434343BAA2A2A2DF4D4DE9885EBF4343E9
:1081A00043434399A200B0F5B06F00F090802DD802
:1081B000B0F5207F71D00CD8B0F5C07F65D0B0F598
:1081C000007F65D0B0F5807F00F08680009804B015
:1081D00010BDB0F5607F6BD00DD8B0F5407FF5D104
:1081E000FEF7DCFC02464FF42070FFF72DFFB2FBD8
:1081F000F0F252085AE0B0F5806F5ED0B0F5A06F93
:10820000E4D100216846FFF7C5FDDFE7B0F5106F48
:1082100078D016D8B0F5E06F79D00AD8B0F5C06F35
:108220006BD0B0F5D06FD1D100216846FFF76CFE5E
:10823000CCE7B0F5F06FC9D100216846FFF7E0FE4A
:10824000C4E7B0F5406F3DD013D8B0F5206F63D0D0
:10825000B0F5286FBAD10021324B0391D3F87032B8
:1082600003F00303012B02D103A8FFF7C5FD039B15
:108270003CE0B0F5486FA9D100216846FFF712FE37
:10828000A4E7FEF771FC0090A0E7FEF787FCFAE791
:10829000FEF76AFC0246204604E0FEF77FFC024639
:1082A0004FF42070FFF7D0FEB2FBF0F200928DE7A2
:1082B00001A8FFF7BDFC019AEDE700216846FFF732
:1082C000DBFC83E700216846FFF70AFD7EE700211B
:1082D0006846FFF737FD79E74FF0E02302911B690D
:1082E0005B0705D5FEF75AFC0290029B00936DE7F1
:1082F00003A902A8FFF780FDF7E700216846FFF712
:108300007BFD63E700216846FFF72AFE5EE7002158
:108310006846FFF751FE59E700216846FFF790FDD8
:1083200054E700BF0080005008B58020FFF7FCFE36
:10833000034B98429EBF4FF48032024B1A6708BD30
:10834000005A620200A000501FB503460020B3F59A
:10835000807F019000F0C18064D85D2B55D84C2BF4
:1083600007D82D2B48D8232B2CD8019805B05DF8C1
:1083700004FB4D3B102BF8D801A252F823F000BFAC
:10838000D18400086B8300086B8300086B830008AE
:10839000878400086B8300086B83000855850008FC
:1083A000A58400084B8400084B8500086B830008F7
:1083B0006B8300086B8300086B8300086B830008E5
:1083C0005F850008243B092BCFD801A252F823F087
:1083D000D1840008D1840008D1840008D184000829
:1083E000D18400086B830008C78400086B830008F1
:1083F00067840008078500083D2B7FD03E2BB4D151
:10840000002001A9FFF7D8FDAFE7802BADD1594B74
:108410001B6F03F00703013B032BA6D8DFE803F033
:10842000514E858DB3F5F06F68D021D8B3F5B06F9C
:1084300049D00FD8B3F5607F00F0838095D3B3F5B2
:10844000806F45D0B3F5A06F8FD1002001A9FFF751
:10845000A1FC8AE7B3F5D06F55D0B3F5E06FCFD06C
:10846000B3F5C06F81D1002001A9FFF7C5FC7CE7FF
:10847000B3F5206F6ED00BD8B3F5086F48D0B3F5C5
:10848000106F7FF472AF002001A9FFF769FD6CE760
:10849000B3F5406F59D0B3F5486F60D0B3F5286F8E
:1084A0007FF463AF334BD3F8703203F00303012B37
:1084B0005AD0022B0CBF1523002300E005230193A3
:1084C00053E70223FBE7002001A9FFF73BFC4CE741
:1084D000002001A9FFF7D0FB47E74FF0E02302900F
:1084E0001B695B0705D5FEF759FB0D230393039B1F
:1084F000E5E703A902A8FFF77FFCF8E7002001A940
:10850000FFF77EFD31E7002001A9FFF7FDFC2CE716
:10851000184BD3F8003103F00303022B07D0032BD1
:1085200009D0012B0BD1FEF74FFB0323C7E7FEF762
:10853000A7FB0923C3E70FF07FFA0823BFE7012356
:10854000BDE701A9FFF774FB0FE7002001A9FFF7C2
:10855000C7FB0AE7002001A9FFF772FC05E700202E
:1085600001A9FFF79FFC00E7002103A8FFF744FCE7
:108570001123A4E7008000504FF48032074B0849D4
:10858000586E03F580535A664B6A23F001034B6221
:10859000C3035CBF034B5A66704700BF00800050A6
:1085A00000C0075000A0005038B504468020FFF7F7
:1085B000CBFE032800F083804FF48012524B4FF023
:1085C000A0615A6645F60E02504BC3F88020504A0F
:1085D00091624FF4803102F5805291629A6DD2031C
:1085E000FCD4996D11F08041FBD1D4E90002120551
:1085F00042EA0062E07B0243207B42EA0042607B69
:1086000042EA0032A07B42EA80121A619869D4E9FA
:108610000452120642EA856200F000400243A07E46
:10862000E57E0243207E42EA0042607E42EA00226A
:108630009A611A6AE06922F00F0242EA8502354D1A
:1086400000283DD11A6294F82420996A94F82000F9
:10865000D200294042EA40120A4394F8211042EA2B
:10866000011242F480329A622B49284A936D31EA12
:108670000303FBD14FF08071254881621369A5681F
:1086800023F4700343EA055313614FF00043836101
:1086900094F822300BB9214B996294F823303BB9FE
:1086A0004FF480321D4B9A62184A936D5B00FCD4E4
:1086B00094F825301BB1154B194AC3F8802038BDFA
:1086C000024342F0080202281A6208D119614FF4ED
:1086D0000852996113484FF47F410FF000FB0B499A
:1086E00094F822308A6A94F820001B062A4043EA54
:1086F0004013134394F8242043EAC20394F8232040
:1087000043EA02438B62D3E7009000500040005AD6
:108710000050005AC7FFFEFE030001000060005A2F
:10872000F1A7FFFF3440005A014B93F90000704756
:10873000A2430020014B1880704700BF90430020E7
:108740004FF4800208B5184B5A660223174A53604B
:10875000936813F48033FBD1012822D1FEF734FA59
:10876000134B984215D003F5122303F5F863984292
:1087700013D0104B00EB8002400AB3FBF0F3520A17
:108780000A49CA620B6301234B620022074B5A60FD
:1087900008BD45F67A13084AF2E745F61A03074A78
:1087A000EEE75362F1E700BF009000500040025036
:1087B00000F0490264666666D8B80500BBCF0500C4
:1087C000B0F5207F10B50C465DD008D8B0F5007F1D
:1087D0004ED003D8C0B1B0F5C07F15D010BDB0F5F4
:1087E000607FFBD12C4B4C1ED3F8FC202B4912F0A0
:1087F000807F4FEA041427D1D1F8803023F0300372
:108800002343C1F88030E9E70FF078FA0FF084FADB
:108810004FF48031224B214A1967136F013C23F436
:10882000704343EA04331367FEF7B8F90446FFF7D1
:1088300079F9C0F1020120460FF068FA00F042F821
:10884000BDE81040FFF770BDD3F8FC2022F0807225
:10885000C3F8FC20D1F8802022F030022243C1F876
:108860008020D3F8FC2042F08072C3F8FC20B5E7EA
:108870000A4A4C1ED2F8903023F0F85343EA0463BE
:10888000C2F89030AAE7054A4C1E136F23F48063A8
:1088900043EA84231367A1E700ED00E00080005065
:1088A0000090005008B50121022000F019F90FF0E6
:1088B00025FA0FF031FA4FF48032014B1A6708BDE8
:1088C0000090005008B54FF4C070FFF72DFCBDE8D4
:1088D00008400449884294BF012102214FF42070CE
:1088E000FFF76EBF80F0FA024FF4C02270B5054664
:1088F000FFF724F9314B04465A6603F598335A685A
:10890000012A04D12E494A605A689207FCD480207B
:10891000FFF71AFD052807D10FF0F0F90FF0FCF969
:108920004FF48032254B1A67264B24F040749D4249
:1089300030D0254B9D4230D0FEF70AF985420646DD
:1089400003D90121284600F00BF9204BDA6812F018
:10895000060FFBD199689C609A68624012F4F81F78
:108960001ED12846FEF7FAF88020FFF7EDFC052817
:108970000DD1FEF713F90446FFF7D4F8C0F1020158
:1089800020460FF0C3F9FFF79DFFFFF7CDFCAE4285
:108990000CD270BD44F00074CEE744F08074CBE795
:1089A00080209960FFF7D0FC052805D0BDE8704015
:1089B0000121002000F0D4B83546DAE700900050DD
:1089C00000E0015040420F0080841E000000015072
:1089D000304B314A984251D020D8A3F5B703A3F5C4
:1089E0005863984246D00DD82C4B984231D02C4B2E
:1089F000984239D02B4B4FF4002198421DD00023D0
:108A0000516622E0284B4FF400219842F7D1274BC2
:108A1000D3F8BC30516623F0407316E0244B9842E3
:108A200030D0244B984231D0234B4FF40021984250
:108A3000E5D11E4BD3F8C830ECE71C4BD3F8A0307F
:108A4000516623F0407343F000734FF0B4429360DB
:108A500070474FF40021154BD3F8A030516623F036
:108A6000407343F08073F0E7104BD3F8A0304FF41D
:108A70000021CFE70D4BD3F8B830F8E70B4BD3F814
:108A8000C030F4E7094BD3F8CC30F0E7074BD3F80C
:108A9000D030ECE7C0EA21010090005080841E0035
:108AA00000093D0040420F000024F4000080E00F68
:108AB0000048E801005A620280BA8C01024A536BF6
:108AC0000342FCD1704700BF00400950034A0179BE
:108AD000D36E23F030030B43D36670470040005041
:108AE000F8B504461C4BD3F88420D106FBD4D3F848
:108AF0008430C3F381139C422CD0FEF735F8012C4F
:108B0000064602D121460FF001F90EF061FF4FF049
:108B10000072124B07465A6620460FF019F94FF4BF
:108B200080630D4D621E93402B676B6E9A0103D4D8
:108B3000D5F884309B060AD538460EF04DFF022C3E
:108B400008D13046BDE8F84000210FF0DFB8D5F875
:108B50008430EAE7F8BD00BF0040005000600050DC
:108B600010B50C4608B9FDF7FFFF074B21461B78EF
:108B70003BB1064B984204D80120BDE81040FFF7F6
:108B8000AFBF0220F9E700BF2E3D0020005A62026D
:108B90004FF0004238B5244B244C5A664AF6CD3388
:108BA000656C014605F00105236428BB0120FFF731
:108BB00085FF6368DB0715D51D4B586008461D4BC4
:108BC000226BD2070CD4984208D1072415B1174B59
:108BD000194A1A6414F04BFD204638BD0130EFE706
:108BE0009842F2D00024F1E70132236B13F008031E
:108BF00005D08A42F8D1E8E700220E49F5E78A421B
:108C0000E3D020210A4A91620121A2F580525160ED
:108C10000649084A886A800603D49342D5D00133B6
:108C2000F8E79342DDE700BF009000500040095094
:108C30000060095040420F003254FFFF4FF00042E5
:108C400038B5164B01465A664AF6CD33144C154AD0
:108C5000656C236443780B205B0043F00103D3630E
:108C6000FFF72CFF63688A7823F4F87343EA021352
:108C70006360CA784B7943EA0223A3600A798B794F
:108C800043EA022323610878FFF782FFEB0744BF22
:108C9000054B236414F0EBFC012038BD009000501C
:108CA00000400950004000503254FFFF4FF0004296
:108CB000124B70B55D6E03F580535A664AF6CD339C
:108CC00004460F4980204E6C0B64FFF7F7FE0B6AD9
:108CD00023F00F030F2C94BF234343F00F030B62C9
:108CE000F30744BF074B0B64002DA2BF4FF00042B7
:108CF000054B5A6614F0BBFC70BD00BF00800050ED
:108D0000004009503254FFFF00A000504FF00042D5
:108D1000104B70B55D6E03F580535A664AF6CD333D
:108D200004460D4980204E6C0B64FFF7C7FE0B6AAA
:108D300023F4F85343EA04230B62F30744BF074BC1
:108D40000B64002DA2BF4FF00042054B5A6614F091
:108D50008EFC70BD00800050004009503254FFFF6F
:108D600000A00050072A2DE9F041154698464FF023
:108D7000030401F003072DD89600B44000FA06F270
:108D800021461C480FF02AF821461B4807FA06F234
:108D90000FF024F8194B1A499DF81800B8F1000F8C
:108DA00018BF1946012303FA05F50D60154B164946
:108DB000002818BF0B461D60144B9DF81C00C3F81B
:108DC0002054103103F22443002818BF0B461D60C5
:108DD000BDE8F081A2F10806B600B44000FA06F240
:108DE00021460B480EF0FAFF21460A4807FA06F220
:108DF000CEE700BF00C4035008C4035010D4035092
:108E000010E4035014E4035014D4035000E0035062
:108E100004C403500CC403502DE9F04105460F462D
:108E20001E4690464AB101233022194C8B4002FB6A
:108E3000004436B304F5825423600F21072F05EB5D
:108E4000450388BFA7F108044FEA0313114895BFF3
:108E5000BC00A40004330C3308FA04F2A140184407
:108E60000EF0BCFFB8F1000F09D101233021084AF0
:108E7000BB4001FB05223EB102F582521360BDE802
:108E8000F08104F50154D7E702F50152F6E700BF7F
:108E900000C0035030C00350044A054B002908BFEE
:108EA0001346012282401A60704700BF40100450F0
:108EB0004020045010B5012104462020FFF71AF984
:108EC00001212120FFF716F90122114B15205A60CC
:108ED000227812069A606178A27842EA01429A6189
:108EE000FF229A6200229A631A644FF000425A6588
:108EF0004FF0FF3203F500531A6500F091FE152084
:108F0000E17800F09BFEBDE81040152000F044BE63
:108F100000000450F8B50125C3B2D1F800E091F883
:108F20000AC00F7B0C469D40CB7A1D491D4E0D6536
:108F3000810001F1A04101F58821C1F804E04FF062
:108F4000300E0EFB00601B05617B43EA0C4343EAD5
:108F5000475322F003020166C36502670EF043FD2A
:108F6000114B5D65237A13B1336C2B433364637A01
:108F700013B1B36B2B43B3632279A37943EA024362
:108F8000074A93616179E37943EA014306498B61BA
:108F9000044B55639D64BDE8F8400EF02ABD00BF48
:108FA000002004500000045000100450F8B50125C2
:108FB000C3B204469D400EF016FD3022094B1E6DD3
:108FC0005F6B02FB04335C6E0EF013FD3D4206D175
:108FD000C4F30A1008B9354200D10130F8BD0020B1
:108FE000FCE700BF000004504FF48032054B9A6646
:108FF00041F6713203F51C33DA63012203F50053A5
:10900000DA6070470090005041F671320121064B42
:10901000DA6303F50052D1600022DA634FF4803244
:10902000A3F518339A6670470000035001383128C1
:109030009ABF024B185C0020704700BF9CE00108FB
:10904000021E30B54FF000000CBF1025042547F676
:109050000774084952B9831D51F82330234023B1C6
:1090600001308542F6D14FF0FF3030BD00F11603DC
:10907000F2E700BF0080035038B5C2F3062504466E
:1090800002F0070241B942EA052242F440220634C6
:10909000074B43F8242038BD114628460EF0ADFE9C
:1090A00002462846FFF7C2FF163442EA0022EFE7E5
:1090B00000800350044B1868421C02BF034AD2F8D8
:1090C00094001860704700BF984100200040005095
:1090D0004FF48032064B5A6603F5E6239B69C3F3CF
:1090E0008512827003F03F021B0B427003707047C1
:1090F00000900050014B986CD96C70470080E00FD5
:109100000120034B9B680A3303F01F03984070470C
:109110000080E00F70B5054616461C4621B94FF495
:109120002070FFF701F80146402C1BD003D8DCB1BA
:10913000202C1BD070BD602CFCD1042303FB06F255
:10914000530803EB4113B3FBF2F3094A203B02EA55
:10915000C303AA6822F06002AA60AA681443AC6044
:10916000EB61E7E70623E9E71023E7E70823E5E7F4
:10917000F8FF7F00012100F5805310B5596040F6DB
:10918000AA6341F2050243610023094C8360C36571
:10919000C26000F500520361C361C3649464054C6E
:1091A0008365A04204BF03654365516010BD00BFE5
:1091B000FFFF010000C0055070B50D46FFF7DAFF54
:1091C000012300F580567360AB7C04461BB18368B5
:1091D00043F080438360EB7C5BB1244B9C4202BF35
:1091E0002A7DA3F51033C3F8C821E36D43F0800353
:1091F000E3652A8A6B7B20461343EA891343E360C5
:109200002B7BD5E90112FFF785FF6B7D1BB1A368AE
:1092100043F48033A360AB7D1BB1A36843F40043E8
:10922000A360EB7D2A7E1B07120502F4E00203F027
:10923000E0431343A3656B7E9A1E012A4FF002029E
:1092400009D80B49032BC1F8202709D10423F36562
:109250002B78636170BD0749012BC1F82027F4E723
:10926000042204F50053DA65F2E700BF00C00550A0
:1092700000D0035000E00350034B5A68D20702D5D8
:10928000DA69002AF9D1704700800A50054B9A68C4
:109290009107FCD45A689207F9D4DA69002AF6D10A
:1092A000704700BF00800A5008B5FFF7E5FF0222B3
:1092B000014B1A6108BD00BF00800A5008B5FFF7D6
:1092C000E5FF0122024B03F580514A601A6108BD97
:1092D00000800A5008B5044B5968012903D1FFF7F3
:1092E000E3FF024B596008BD00800A5000A00A50FD
:1092F00010B5064CFFF7CAFF6368012B03D1FFF7D7
:10930000E9FFFFF7C3FF0378E36010BD00800A5058
:10931000B8B94A680B7812B1127843EAC2034A78A6
:1093200043EA42038A6812B1127843EA82138A78C8
:1093300043EA8203CA6812B1127843EA4223014A1F
:109340009364704700800A5008B9014B5964704714
:1093500000900A5008B9014B5964704700A00A50A8
:1093600008B9014B1964704700A00A5010B9024BAC
:10937000186C70470020704700800A5048B911B13E
:10938000012903D07047044BD86C7047024B186D0D
:1093900070470020704700BF00800A5040B911B1EB
:1093A000012903D07047034BDA647047014B1A65FB
:1093B000704700BF00800A5038B50446054D14F0D0
:1093C0006BF90FCC0FC594E8030085E8030000207B
:1093D00038BD00BFF032002047F6FF739A42F0B567
:1093E0006FD002296FD8394B5B5C012B6BD8384D9D
:1093F000DF0005EBC30415F83330A178012B13D13E
:109400000025E078401AA84202D80844C0B2F0BD56
:10941000431B6668A0EB530336F913609642D4BF32
:109420001D4603F1FF30EEE760680028EFD0B0F989
:109430000040944204DBB0F902409442B8BF1446A5
:1094400083883D44FF2B19BFC8224FF0280CB0F988
:109450000620B0F908C0A2EB04030CBF01260026C9
:1094600093FBFCF333446E781BB29E4201DD002B6C
:1094700001DA731E1BB24FF47A7C01339BB2071DD5
:109480005D1E2DB24FEAC50E00EBC505EA88AD683A
:109490009E4214FB025222EAE27202F15C02B2FB2B
:1094A000FCF204DD37F8335001339542E8D200EB8B
:1094B0000E039888904228BF1046884238BF08465D
:1094C000A4E7FF20A3E70020A1E700BFCEE001084A
:1094D000F03200200229F0B555D82C4B585C0128F9
:1094E00051D82B4C04EBC00114F830004B68012814
:1094F0000FD1C8788C78904294BFC4EB0001C4EBC4
:109500000201001BCAB28242C8BF002233F9120016
:10951000F0BD002B37D08878904202D3B3F9020017
:10952000F6E7CC78B3F900009442F1D94C789988E9
:10953000013CA1F1FF06714203F10405E4B271415F
:1095400003F10C07CEB2B44216D805EBC1014FF4BB
:109550007A756A43B1F902404968521A04EBD47132
:1095600002EB610292FBF4F29042D1DBB3F902000C
:109570009042CDDC10B2CBE737F831C04E1C944599
:10958000E3D33146DEE70348C2E700BFCEE001087F
:10959000F03200200080FFFF08B50448FFF70CFF01
:1095A000BDE80840012014F09AB800BFD4E00108DB
:1095B00000487047924300207FB51422002101A883
:1095C00013F059F8044B01A94FF0FF30029314F047
:1095D000C6F807B05DF804FB006A18004FF480621B
:1095E000014B00209A667047009000504FF4806253
:1095F000014B00209A66704700A0005008B5B0B13A
:109600004FF480620B4B9A660EF095FC4FF0984336
:109610005A6CD202FCD54FF48062586D064B10F4A0
:1096200070209A6604D0BDE808400EF02FBC2120BF
:1096300008BD00BF0090005000A000502DE9FF477A
:109640004FF000080E4617460446CDF8008000286B
:1096500059D022B90025284604B0BDE8F08700297A
:1096600051D032F0030902F0030A1FD04FF0E0633B
:10967000C0E9003801230191C0F808800293C0F8C6
:109680001C8049F0005301A903930EF041FC4946A8
:1096900020460EF047FC2046FFF7B0FF054628B1F4
:1096A0004A464146304612F0E6FFD4E7BAF1000FD1
:1096B000D0D04FF000084FF0E063C4E90038012338
:1096C000CDF804D00293114B204601A9C4F80880BC
:1096D000C4F81C8003930EF01BFC042120460EF0FE
:1096E00021FC2046FFF78AFF054608B13A46D8E735
:1096F000009A4E44EB00013522FA03F3AA4506F81E
:10970000013BF7D1A6E72125A5E700BF0400002013
:109710002DE9F041012905460E4690461F4692B0BC
:109720004AD8046824F04003802B02D0B4F5807F2F
:1097300045D11C2200210BA812F09DFF234A244B87
:109740000121012E08BF13460A932B1D0193E40843
:10975000204B44F0005402910AA80394CDF81080E5
:10976000059106930797089101A909930EF0C6FB8E
:1097700004A90AA80EF0C2FB07A90AA80EF0C8FBAC
:1097800029680AA8C9080EF0CDFB10210AA80EF01E
:10979000C9FBFFF723FFA8B90AA80EF0CCFB4FF0D6
:1097A00098435A6CD202FCD55C6DFFF71FFF04F49E
:1097B000702012B0BDE8F0816FF02000F9E76FF083
:1097C0007100F6E74FF0FF30F3E700BF000100043F
:1097D000000101041000002030B5154B87B0029342
:1097E000144B0390049346F611030D46059300F0C5
:1097F00023F81428044616D168460EF027FC4FF0D3
:10980000A843032202A95A6319601D619A63DA6BA7
:109810009207FCD1142C02D168460EF025FC00F012
:109820003FF8044601E00028E9D0204607B030BDEB
:10983000083300200400002038B5164B5A6E42F061
:1098400004025A66D3F8802242F00102C3F8802253
:10985000114B5B68C3F3080343B14FF0A842D36BCD
:1098600013F0430FFBD11424204638BD4FF0A8431A
:10987000DC6B14F04304FBD1084D2B681BB90421A9
:10988000284603F05BFA2B68013343F000432B605A
:10989000EAE700BF0080005000ED00E00833002040
:1098A000014B00205B68704700ED00E0B8B1036831
:1098B00013F4E07F03F03F00C3F382120AD0012AC1
:1098C0000DD1084B41B103F58053012282401A604B
:1098D00000207047044BF5E703F50053F5E70E2031
:1098E000704700BF688000506480005030B58BB076
:1098F0006C466D4D0FCD0FC40FCD0FC495E803001E
:1099000084E80300694BD3F84C21110340F1AE8089
:10991000A3F5FE431C884FF6FF739C4208BF8C24BE
:109920008DF81940FEF700FF044484F308046048F2
:109930008DF81840FDF74EF96846FEF735FE3220E7
:10994000FEF7F8FE5B48FEF7CFFF5B48FFF740F8F5
:109950005A4C01213620FEF7CDFB0020FEF7F0FE29
:10996000FEF7A0FF236F002023F0070343F003035B
:109970002367236F23F4744343F4806323670EF05B
:10998000D0F94F4BD3F8FC20D20173D4D4F88030F7
:1099900023F0030343F00103C4F88030D4F880308F
:1099A000C4F88030454CD4F8203123F0070343F04D
:1099B0000203C4F82031D4F8283123F0070343F020
:1099C0000203C4F82831D4F8803123F0030343F0B4
:1099D0000103C4F88031D4F8403123F0030343F08D
:1099E0000103C4F84031D4F8603123F0030343F09D
:1099F0000103C4F86031D4F8403223F0030343F08C
:109A00000103C4F84032D4F8003223F0070343F0D6
:109A10000103C4F80032D4F8083223F0070343F0FE
:109A20000103C4F80832D4F8703223F0030343F082
:109A30000103C4F87032D4F8203223F0070343F056
:109A40000103C4F82032FEF797FD4FF0E02200201A
:109A5000136963F004031361D4F8603223F0070341
:109A600043F00103C4F860320BB030BDD3F850416D
:109A7000E4B255E7D3F8FC2022F08072C3F8FC2052
:109A8000D4F8802022F0030242F00102C4F88020C2
:109A9000D4F88020C4F88020D3F8FC2042F08072F3
:109AA000C3F8FC207EE700BF24E701080080E00F38
:109AB000C017530200B4C404C0EA21010080005062
:109AC00000ED00E007B5094B18689A889B79009073
:109AD0006846ADF804208DF80630FFF7AFF809208E
:109AE000FFF7E4F8002003B05DF804FB4CE7010841
:109AF00013B50024064A6846536F43F001035367C9
:109B000000948DF80440FEF7E1FF204602B010BD3E
:109B1000004000500028ABBF00F16040054B00F54D
:109B2000614000F00F00ACBF90F80003185C000922
:109B3000704700BF14ED00E06FF00403502110B532
:109B40000A480B4C13F0800F03F1010206D12344A5
:109B50004C2A83F800131346F4D110BD03F00F0311
:109B6000043B034419761346ECE700BF00ED00E028
:109B700000E100E0BFF34F8F0549064BCA6802F4CD
:109B8000E0621343CB60BFF34F8F00BFFDE700BF20
:109B900000ED00E00400FA05002807DB012341097D
:109BA000034A00F01F00834042F82130704700BF95
:109BB00000E100E0054B421153F8223000F01F0095
:109BC00023FA00F0C04300F00100704700E100E01C
:109BD000014608B5EFF31083DB0702D501221046DA
:109BE00008BDFFF7E7FF02460028F7D10846FFF758
:109BF00091FF0146EFF3118313B1B0EB131FEDD2C8
:109C0000064B5868C0F308000028E8D01038FFF76A
:109C100081FF88428CBF00220122E0E700ED00E0D6
:109C2000002808DB01224309034900F01F0082409D
:109C3000603341F82320704700E100E00028ACBF0A
:109C400000F16040064B4FEA0111C9B2ABBF00F50D
:109C5000614000F00F0080F800131954704700BFF6
:109C600014ED00E000F00CB800F00AB800F008B8FD
:109C700000F006B800F004B800F002B800F000B838
:109C800072B61EF0080F09D01EF0040F0DD0DFF8D9
:109C900050E0AEE8FF1F6FF002000CE0DFF840E09C
:109CA000AEE8FF1F6FF00E0005E0DFF834E0AEE82D
:109CB000FF1F6FF006006946EFF309828EE8070088
:109CC00086460848084C854501D3A54501D384F351
:109CD000088802F03BFF84F308880EF0B0FE000015
:109CE00000100020400000200010002073B5002468
:109CF000684600F0D9FA0C4B00981C600B4B0C4DD9
:109D00001C600C4E0C4B306018602C600EF0FCFA9E
:109D10002046019B3268013BDB0853802B680133EE
:109D20002B6002B070BD00BF103300200C33002048
:109D3000143300201C330020183300202DE9F04F8D
:109D40000027924687B04A1C0E4614BF0C460824D2
:109D500099460597002B00F0B0801F60002800F0A6
:109D6000AE80073020F007050DF03DFE05AB314613
:109D70000290009352463B46284600F09FFA059E0B
:109D8000804606B130B902980DF033FE192007B0B5
:109D9000BDE8F08FDFF83CB17788DBF80010FB00FE
:109DA000C0EBC7070139272FCBF800106CD9BAF1E7
:109DB000000F48D1854205F1080740D021463046C2
:109DC0000EF0F3F904460590059B1F4438460EF04B
:109DD0009BFA059905F10F034A88C3F3CF03D21A02
:109DE0007A80CA88BB8062B3D31A9BB201EBC202ED
:109DF000FB8093808B88ED08A380BB8800223146CE
:109E000038466580E38000F0D1FA237843F00103FF
:109E10002370DBF800300133CBF800302B4A029876
:109E20001368083443441360294A11688B4288BF81
:109E300013600DF0DEFD0020C9F80040A7E73446AE
:109E4000C2E7FA80D6E7F419204603930EF05CFAD5
:109E500008F10702D20805996280FA1DD208A28093
:109E6000CA887AB1D200039BD01DC31A4344C3F3FE
:109E7000CF030A44E3809380A388013FFF084F800B
:109E8000CB80C2E7E280F7E7BAF1010F19D106F102
:109E90000803B3FBF4F204FB1233A3B121463046AE
:109EA0000EF083F904462378012243F00103314682
:109EB0002046237000F07AFAB0E7222067E72120DD
:109EC00065E78542EAD13446EDE700BF1033002054
:109ED0000C330020143300202DE9F3470446684674
:109EE00000F0E2F9002C00F0AB800DF07CFD14F8DE
:109EF000086CF30704D534F806ECBEF1000F05D169
:109F00000DF077FD012002B0BDE8F0874D494E4DC0
:109F10000A68D5F80080A2EBCE020A6034F8041C6F
:109F20000EF1010308F10102A4F1080C9BB22A60B2
:109F3000B9B3ACEBC10292F800A0B2F806901AF0E7
:109F4000010F578806F002061FD1FEB9A9EB0701E1
:109F5000012926D80EF102031F44BBB2C5F80080C8
:109F600034F8026CFEB9013B9BB214F8081C6FF385
:109F7000000104F8081C002124F8061C5380137803
:109F8000D18061F30003137031E056B119448BB2F4
:109F900014F8081C6FF3410104F8081C002191809B
:109FA000DEE76246DCE70CEBC608DDE900710F4432
:109FB000B845D8D21CF83670414617F001072AD0B0
:109FC000013B9BB214F8085C6FF3000504F8085CD1
:109FD000002524F8065C5380137865F300031370A2
:109FE000C2F107030B44C3F3CF03D3808B8017491F
:109FF0000B681BB1934201D85B8803B90A6014490E
:10A000000B681BB1934201D35B8803B90A600DF062
:10A01000F0FC002077E7A6EB0E06012ED0D8B8F8AA
:10A020000260A8F802703344B8F806702E689BB23C
:10A03000013E1FB108EBC7012E60C3E72E6094E715
:10A04000222060E710330020143300201C3300204E
:10A05000183300202DE9F84F04460D469146002A9A
:10A0600000F018810023136040B9002900F014812A
:10A0700001462846BDE8F84F0EF0D7B819B9BDE83B
:10A08000F84FFFF729BF0DF0AEFC34F8063C07355A
:10A090004FEAC30825F00705A8450746A4F10800C4
:10A0A00080F0858034F8022C002A64D000EBC20ACC
:10A0B00010F83220D2075ED4BAF80210A8EB0506D9
:10A0C00016EBC10657D41F2E3CDDC5F3CF0304EBBE
:10A0D000050B24F8063C013324F8023C58460EF0E8
:10A0E00013F934F8023CC6F3CF06ABF80430BAF8E3
:10A0F0000630ABF8026013B3BAF802209A1A16447D
:10A10000B6B20AEBC303ABF806609E80002251464C
:10A11000584600F04BF950460EF0F6F85F4AC9F881
:10A12000004013682B44A3EB080313605C4A1168DA
:10A130008B423AD838460DF05CFC002525E0ABF8A0
:10A140000630E3E7574E0B4432689BB2013A326067
:10A150005A1C24F8062CBAF806204AB102339BB2E6
:10A160000AEBC20224F8023C938001225146D0E758
:10A1700024F8022CF9E728464A4600210EF055F84B
:10A18000054628B138460DF034FC2846BDE8F88F66
:10A1900042462146D9F8000012F0CDF92046FFF7DB
:10A1A0009BFE05460028C5D0ECE71360C2E76ED9D8
:10A1B00034F8023CA8EB0506002B3AD000EBC30AAA
:10A1C00010F83330DB0735D4C5F3CF0304EB050BB0
:10A1D00024F8063C013324F8023C58460EF094F86B
:10A1E000BAF8023034F8022C03EBD603ABF80420A3
:10A1F000BAF806209BB2ABF80230BAB101339BB279
:10A200000AEBC202ABF80630938058460022514652
:10A2100000F0CCF850460EF077F8204BC9F800401B
:10A220001A681544A5EB08051D6083E7ABF8062006
:10A23000EBE79A46272EF0D9C5F3CF0304EB050BC5
:10A2400024F8063C013324F8023C58460EF05CF832
:10A25000013E34F8023CC6F3CF06ABF80260ABF81F
:10A260000430BAF1000F0FD00136B6B2ABF8066079
:10A27000AAF804600B4A58461368013313600022A1
:10A28000114600F093F8C8E7ABF806A0F2E7C9F86A
:10A2900000404FE7222578E7212576E7103300209C
:10A2A0000C330020143300200249034A0160521A83
:10A2B00042607047B843002000000420F0B5064615
:10A2C0000020059F4C1C08BF08213860BAB91F4800
:10A2D0000568002D38D0B5F802E0DB0003EBCE0EA8
:10A2E000C1F1000C2878C0070BD52ABBE888B0B1B3
:10A2F00005EBC005B5F802E003EBCE0EF2E714481B
:10A30000E6E7B645F1D35AB905F10804B4FBF1F01C
:10A3100001FB1044A0190CB17045E7D83D60F0BDB9
:10A3200008290FD06C88013405EBC404A01B00EA97
:10A330000C00201A8645F1D2A8880028EFD0A5EBA2
:10A34000C005D7E73046E9E72846E8E71C33002098
:10A3500018330020134B13B51B6804460846FBB1A5
:10A3600021B96846FFF7A0FF6CB900980378D907B8
:10A3700007D55CB9C3889BB100EBC3000378DA074B
:10A38000F8D402B010BD084B1868EFE7012C07D1D4
:10A3900083882BB1A0EBC3000378DB07F8D4F0E788
:10A3A0000020EEE71433002018330020F8B5154FD5
:10A3B00005460C463B68144EB2B1994209D041B1F2
:10A3C0003368994204D129460120FFF7C3FF30606A
:10A3D000F8BD29460020FFF7BDFF33683860A3426F
:10A3E000F1D0002CEFD0F3E7994205D13D603368FE
:10A3F000A34204D13560EBE79842F7D3F7E7AB42CD
:10A40000F8D3E5E71C33002018330020BFF35F8F3B
:10A41000074B5A6A22F480325A62D3F8942022F011
:10A420000102C3F89420BFF34F8FBFF36F8F7047C3
:10A4300000ED00E038B5FFF7E9FF284A2848D2F8D8
:10A44000C030284D23F0FF0343F0A003C2F8C03012
:10A45000254B04689D4204F101011ED1234BC2F833
:10A460009840C2F89C3003F57F3303F2FE33C2F804
:10A47000A0300160BFF35F8F0522184BC3F8942012
:10A480005A6A42F480325A62BFF34F8FBFF36F8F24
:10A49000BFF34F8FBFF36F8F38BD23F01F03203BF7
:10A4A000B3F1005F09D3C2F89840104C43F00103A8
:10A4B000C2F89C40C2F8A03001600D4B0168074A09
:10A4C00023F01F0343F00303C2F89810C2F89C3036
:10A4D000084B0131C2F8A030CBE700BF00ED00E02F
:10A4E0002033002060410020A03F00200300002016
:10A4F0007F410020E1FF03202DE9F0410D46114688
:10A50000DFF8E080D8F80040B4F5807F34BF002742
:10A510001A27FFF77BFF1F292ED90021C2061CBF77
:10A5200020F01F0020302E4EEB0618BF25F01F052F
:10A53000CBB29C4235D8D6F8C03020F01F0023F4AF
:10A540007F4343F48073C6F8C03040F003040DF03D
:10A550004AFAD8F8003025F01F0141F00301C6F88F
:10A560009830C6F89C40C6F8A0100DF042FAD8F812
:10A5700000300133C8F80030BFF35F8F0522184B5D
:10A58000C3F894205A6A42F480325A62BFF34F8F64
:10A59000BFF36F8FBFF34F8FBFF36F8F3846BDE8A8
:10A5A000F081C6F89830D6F89C30D6F8A02023F079
:10A5B0001F03984222F01F0201D195420BD0904216
:10A5C00001D89D4209D2D6F89830013123F0FF031B
:10A5D000C6F89830ACE70027CEE72827CCE700BFC5
:10A5E00000ED00E02033002030B50E4C41612368BF
:10A5F0008BB9206083600DE0891A9A681D4641611D
:10A600006AB113465A698A42F6D935B1A860521A1E
:10A6100083605A6130BD0025F4E72060F7E7986059
:10A620008260F7E72C33002038B500F06BFA002584
:10A63000084B094C1A682368C31A2AB123B151691F
:10A64000994203D3C91A5161206038BD55615B1A24
:10A650009268F2E72C3300202833002038B5134DE0
:10A660002B685B6993B1124A022014681C440DF0F8
:10A670007DFE204600F04EFA00230E492A680B703A
:10A68000D088800709D501230B7038BD02200DF05A
:10A690006DFE022000F08CFAEEE79268002AF4D0FA
:10A6A00050690344012BEBD9EFE700BF2C330020A6
:10A6B00028330020303D002070B516469DF8142048
:10A6C000C0E903360271049ABDF818300260002216
:10A6D00004460D468260C380EEB900F013FA2844A8
:10A6E000A0619DB12E460DF073F90546FFF79CFF62
:10A6F00031462046FFF778FF104B1B68A34201D17B
:10A70000FFF7ACFF28460DF067F902E0E3686561EA
:10A710007BB9002070BD00F0F5F93044A061002D38
:10A72000E0D1E3686561002BDDD0204621689847C1
:10A73000D9E7204621689847EBE700BF2C3300207B
:10A7400000220C490B687BB183420AD183687AB13D
:10A75000936083681BB15A6941690A445A610020B9
:10A7600070471A469B68EEE70028EFD0022070473A
:10A770000B60EEE72C33002070B50DF034F9144E69
:10A7800005463478FCB9134B1C60134B1C60134B0B
:10A790001C8000F083F901200DF0E8FD00F010FAB4
:10A7A0000F4B0246186020B928460DF022F92320ED
:10A7B00070BD234640F2E7310A4803F06FFE0A4BB2
:10A7C00018600123337028460DF013F90020EFE7DD
:10A7D000313D00202C33002028330020303C002065
:10A7E0003033002018FCFFFF2433002070B50446EE
:10A7F00040B30DF0EDF8144E0546FFF715FF306835
:10A80000A04209D02046FFF79BFF0446B0B128467E
:10A810000DF0E2F8204670BDFFF792FF04460028D5
:10A82000F5D133683BB9022000F0ACF928460DF0B1
:10A83000D3F80024EEE7FFF711FFF7E73368002BAA
:10A84000F4D1F0E72224E5E72C33002038B50C469C
:10A850000546A8B1A1B100230B700DF0C4F8012189
:10A86000084B1B6833B90DF0C4F8002038BD9D4279
:10A8700004D121702278002AF9D0F4E79B68F1E72F
:10A880002220F3E72C33002070B50DF0ACF806461B
:10A8900000F038F9084B04461D880120ADB20DF0D8
:10A8A0006EFD18B100F02EF90446013530460DF06A
:10A8B000A0F82046294670BD303C0020F8B50C4B6E
:10A8C00005461B680E4683420FD3002440F2E73052
:10A8D0002146084B4FF47A721F680023E5FB0701FD
:10A8E00003F0DCFD30602046F8BD2120FCE700BF0E
:10A8F0002433002030330020014B1868704700BF1C
:10A900002433002038B5154B14468342144B8B4139
:10A9100021D3144B1A68F2B14FF47A75A0FB0503EA
:10A9200005FB0131531E134211D1B2FA82F2C2F17A
:10A930001F05531CD24301FA03F3E84021FA02F247
:10A9400018431043E940C4E90001002038BD00234A
:10A9500003F0A4FDF7E72120F8E700BFEFA7C64BFF
:10A960003789410030330020C2072DE9F047044603
:10A970000BD5474A138801339BB21380FFF754FE6F
:10A98000444B1B680BB1FFF769FEA3077ED50DF0A2
:10A990002AF84FF0000905464E46FFF745FEC84627
:10A9A0003C4F3C680CB163698BB100223A4B012EDD
:10A9B0001A7003D119F0020F18BF1E70002C61D05D
:10A9C000FFF74CFE2846BDE8F0470DF012B82346CD
:10A9D0005A693AB91A792179914288BF1C469B6815
:10A9E000002BF5D128460DF004F82569DDB100F003
:10A9F00089F8A269A0EB02094FEAE9734D4578EBAB
:10AA0000030311DA23691344A361E368B4F80690E1
:10AA1000013613B12046216898470CF0E4FF054643
:10AA2000FFF702FEBDE7A9460CF0DDFF8246204697
:10AA3000FFF786FE50460CF0DCFF2369002BE4D0C4
:10AA4000A38BB5EB090533B1E28B13449BB2B3F58D
:10AA50007A7F0FD2E3830CF0C6FF81462946204659
:10AA6000FFF7C2FDA369226948461344A3610CF0B5
:10AA7000C0FFCAE7A3F57A73E383A369013D013BF5
:10AA8000A361E8E7022000F07DF89BE7BDE8F087CE
:10AA9000303C00202C3300202F3D002010B5012336
:10AAA000002486B01548ADF80830CDE903448DF890
:10AAB00004408DF80A4005940DF012FB01A8FEF742
:10AAC00017FC204602A98DF80840FEF721FC20461D
:10AAD0000F21FEF73FFC0F212046FEF741FCFEF759
:10AAE000EDFBFEF7C9FB064B43209C61FFF798F88E
:10AAF0004320FFF751F806B010BD00BF58E701082A
:10AB000000800A5008B5FEF7B7FB014B986908BDF5
:10AB100000800A50F8B504460CF05AFF0746FEF7CD
:10AB2000ABFB164B9D690DF01DFC06460020FEF7A1
:10AB30001DFC830704D4731B032B01D8AE420FD135
:10AB40000021631B022B98BFEC1C0846B4F1FF3FA9
:10AB50002CBF2246621EFEF721FC02200DF006FCEF
:10AB600038460CF039FF064A137833B103498B6C31
:10AB700043F001038B6400231370F8BD00800A507A
:10AB8000A3430020830700F0010109D50122064BF1
:10AB900041F002011A70054A936C23F0010393649B
:10ABA0000020FEF7D7BB00BFA343002000800A505F
:10ABB000830742BF0222014B1A64704700900A507B
:10ABC00007B5044B01A918790DF085FA019803B077
:10ABD0005DF804FB6CE7010807B500B9FEE7037FE9
:10ABE00003B1FEE700900122044B406812F081FCA3
:10ABF00000B1FEE703B05DF804FB00BF9F840108CD
:10AC000030B5044685B0084604B9FEE7237F03B19A
:10AC1000FEE703A96568FFF751FE48B90123064A1C
:10AC2000CDE900030399234628460DF077FB00B1D8
:10AC3000FEE705B030BD00BFA5840108154910B579
:10AC4000A1F148000DF0E1FBA0B11249A1F14800CB
:10AC50000DF0DBFB0446A8B90F49A1F148000DF047
:10AC6000D4FB044668B120460C490DF023FC204675
:10AC70000949F4E70849A1F148000DF0C6FB002896
:10AC8000E3D110BD204606490DF014FC20460149D1
:10AC9000DEE700BFCC3300208433002085D20008DB
:10ACA0003DD20008014B1B69184700BF84330020C8
:10ACB0000C4B70B515461A680C4602B91860002393
:10ACC0006119094A5B41C2E900130CF08CFE06468B
:10ACD0002A46214603480DF0FFFB3046BDE8704090
:10ACE0000CF087BE84330020F010002010B50CF06B
:10ACF0007AFE044603480DF0A4FB2046BDE8104050
:10AD00000CF077BE84330020014B1B69184700BF4D
:10AD10003C33002070B50CF05BFE054612F032FDAE
:10AD2000044608490B6808608342074B284682BFE7
:10AD30001A6801321A601E680CF04EFE2046314639
:10AD400070BD00BF3833002034330020094B70B58C
:10AD500016461A680D4602B918600CF044FE044607
:10AD60003246294603480DF0B7FB2046BDE8704047
:10AD70000CF03FBE3C33002010B50CF034FE04460E
:10AD800003480DF05EFB2046BDE810400CF031BEDC
:10AD90003C33002008B5FEF78DF9034B1860BDE881
:10ADA00008400DF04CB800BF3C3400200E4B1B682F
:10ADB000D9070FD45A060FD413F0180F0ED19907E4
:10ADC0000ED49A060ED440F28472134214BF0620A9
:10ADD0000720704700207047022070470820704706
:10ADE00001207047032070473C3400200E4B10B503
:10ADF0001C68A0235C4308B9FFF786FF0B4B1B6858
:10AE0000B3FBF4F204FB1233B0FBF4F204FB1200C8
:10AE10002344181AB0FBF4F304FB1300A023B0FB87
:10AE2000F3F080B210BD00BF443400204034002055
:10AE30002DE9F04104460D460DF0ACFF002855D039
:10AE400020460DF0ACFF002850D0E77E17F0100729
:10AE50004CD1FF2D00D1FEE720460DF076FFA8B1C2
:10AE600020460DF0ADFF0646002843D03C22224B81
:10AE700002FB05335B785A1E90420DD083420AD004
:10AE80000133984234D00820BDE8F0813C221A4BAF
:10AE900002FB05335E7801274FF03C080C2318FBBA
:10AEA000053303EB0713144F3B44A360E37EDB073A
:10AEB00016D420460DF049FF28B108FB05F3FA1817
:10AEC000FE5453689360314620460DF086FF3C23C4
:10AED00003FB0577796820464B1C7B600DF07FFFF4
:10AEE0000649204601EBC5010DF0CCFC0020CBE764
:10AEF0000227D1E70120C7E748340020443D002065
:10AF000010B5084C206812F0EDFA012804D0012297
:10AF10000021206812F0E8FA2068BDE8104005F032
:10AF2000E1BC00BF8834002038B504460CF05BFD5E
:10AF3000044B1D680CF05DFD254214BF012000206C
:10AF400038BD00BF8434002008B50220FFF7ECFFB5
:10AF500028B1034B1B681B681878C0F3401008BD6C
:10AF600028350020074B10B51B6802201B681C8881
:10AF7000FFF7DAFF20B104F00704E31E58425841FE
:10AF800010BD00BF2835002038B50D4604460CF032
:10AF90002AFD064B1A682DB114431C60BDE83840E9
:10AFA0000CF027BD22EA0404F7E700BF8434002038
:10AFB00070B50446184E23680D46306823B39721B8
:10AFC00012F06CFC024600B1FEE72168306805F023
:10AFD000F1FE2379834200D0FEE70122306811465A
:10AFE00012F08EFC00B1FEE70CF043FF0322044692
:10AFF0001146306812F074FC7F2D0CD02946204693
:10B00000BDE8704001F0A2B806F09EF900B1FEE77D
:10B01000FEF7CEFAEAE770BD883400201FB50023A2
:10B02000CDE901330393FF238DF80430074B01462C
:10B0300001AA186812F07AFA044628B904480DF0FB
:10B0400018FF204604B010BD0124FAE78834002020
:10B0500078E7010808B5074B186812F0ADFA30B16F
:10B06000054BB3FBF0F083B20BB1184608BD0120CD
:10B07000FCE700BF8834002040420F0008B5FFF70E
:10B0800063FF00B9FEE70820FFF74EFF00B9FEE7B7
:10B0900001214FF48060FFF777FF00210748FFF799
:10B0A00073FF00210820FFF76FFF054B186805F0BC
:10B0B00019FC0022034B1A7008BD00BF02000100FA
:10B0C00088340020423D002010B504460220FFF7DE
:10B0D0002BFFC0B1B4F5007F4FF0010110D1204625
:10B0E000FFF752FF00211020FFF74EFF0648002116
:10B0F000FFF74AFFBDE81040044B186805F0F2BBAB
:10B100004FF48050F0E710BD0A00010088340020A1
:10B1100013B5084C204612F0FAF9FFF79BFF002305
:10B12000C100009301222046034B12F0E2F902B065
:10B1300010BD00BF883500203DB1000838B5184C5F
:10B14000184B21681B68184DCB1A59425941286881
:10B1500012F0F2F910F5007F0AD0144B002893F991
:10B160000020B8BF033040F387008242B8BF187098
:10B1700022682AB1FFF7CCFF2368013B236038BD6A
:10B180000A4B286893F90010094B19700221094BEA
:10B190001970802112F04BFA0028F0D0FEE700BFB2
:10B1A000A4350020A035002088340020A6430020CC
:10B1B0004F3E0020503E00202DE9F84390460122EA
:10B1C0000C46244B244F254E254D1870002138681D
:10B1D000327012F089F92B79E4B2A34237D86B7937
:10B1E000A34234D3DFF88890D9F80030AB4205D0C1
:10B1F0007F212846FFF7DCFEC9F80050DFF8749085
:10B20000D9F80030B3B98025164B1D70FFF722FF27
:10B21000C000B8FBF0F0144AC9F8000010602946DD
:10B220002A46386812F003FA38B17F220F4B1A70A1
:10B23000022333700120BDE8F8832046FFF7EEFEBD
:10B240000028F7D1FFF764FF0028F4D0EDE70720CE
:10B25000F1E700BF4E3E002088340020503E002021
:10B2600090340020A6430020A03500204F3E00204F
:10B270008C340020A43500202DE9F04F05469002C3
:10B2800017461E46DDB040F1DB80FFF73DFD3B4B2E
:10B29000824607A9186812F05BFABDF81EE0BEF1FD
:10B2A000020F40F2CD803CAC0DF11C0CBCE80F004D
:10B2B0000FC4DCF80030BEF1270F23600AD9272322
:10B2C000BDF82020ADF8F230262A82BFADF8F43068
:10B2D00000233F933CA91CA80DF055FB9DF8F240BC
:10B2E000002C00F0AD800DF171030C93099B0DF162
:10B2F00050091B780CA8ADF834300DF1F103C9F8F2
:10B3000000300DF03BFDDFF88880002800F0CA8196
:10B3100004A90CA80DF021FD98F800405CB19DF83F
:10B32000184044B1022C22D1002004A900F0F6FFFD
:10B33000C443C4F3C034124A124903AB92F900204B
:10B34000097804A801F0BAFD0F4B804610B31868C5
:10B3500010B10E4801F008FE834642460B4803A98F
:10B3600001F01AFE00EB0B085FFA88F818E0BDF850
:10B370001010002000F058FFDAE700BF88340020EA
:10B380004C3D00204D3D002044340020323D002043
:10B390004D3E00201B681BB1BA4801F0E5FD804618
:10B3A00043462146B74ACDF800900CA801F0C2FDF3
:10B3B000002845D1B44BD3F80080B8F1000F12D06B
:10B3C000BDF83430BDF81E205B0103F5F073A3EB2C
:10B3D000421303EB0A00FFF709FD1FFA88F102464A
:10B3E00048460DF0D5FC14A80DF0D4FC20B1002186
:10B3F00014A8FFF71DFD18BB07A80DF0B6FAF8B9A1
:10B40000DDE90983BDF8202014A8002A08BF98466A
:10B410000DF0C0FC28B198F8003043F0040388F820
:10B4200000302CB198F8003063F07F0388F80030CA
:10B43000B9F8042028463CA98DF8F02012F083FAD0
:10B44000F90107F0807240F189810220FFF76CFD5D
:10B4500068B100211020FFF797FDFFF775FD044646
:10B46000002800F06F8101210820FFF78DFD2020CA
:10B47000FFF75AFD07F400510446002800F07F81D1
:10B4800021B101214FF40040FFF77EFD17F4404F3A
:10B4900006D0002148F22000FFF776FDFFF730FDCF
:10B4A0003A0740F199800023DFF8EC810321D8F8B6
:10B4B00000001CAA149312F047F90146002800F07E
:10B4C000C7819DF87030072B40F0C281D8F800008A
:10B4D0003CAA12F040F9002840F0BA81BDF872B0E1
:10B4E0001E9B0BF101091B781FFA89F94B4540F0AF
:10B4F000AF81ABF103037B2B00F2AA811CA80DF0F6
:10B5000034FA002840F0A481BDF87430002B40F0DC
:10B510004E811F9B1C789DF8FD30002B00F0498167
:10B5200004F00703022B40F09381DFF874A11CA9FB
:10B53000DAF800000DF027FAAAF80490FFF704FDEE
:10B54000002842D0514BDAF800201B6892781B6823
:10B550009B789A4239D19DF8F630002B00F0788123
:10B560000BF10203D8F800003CA9ADF8F43012F05A
:10B57000F4F8002840F06C819DF8FE30DDF8F0B062
:10B580008AF815309DF8FF308AF820008AF81630C6
:10B59000FFF7C0FB4FF00009834528BF01F1FF31E1
:10B5A00019EB0B03CAE902314FF480700121FFF758
:10B5B000EBFC49463648FFF7E7FCFFF7D3FC20B128
:10B5C000E30642BF0122334B1A70FFF7CBFC18B9D8
:10B5D000D8F8000005F086F9BC014FF000080CD542
:10B5E0002C4C41460420FFF7CFFC23782BB12A4B8B
:10B5F000186805F077F984F8008017F0084F03D039
:10B6000000210420FFF7C0FCB80003D5002104206E
:10B61000FFF7BAFCB90705D50820FFF785FC08B18C
:10B62000FFF72CFDF20540F11B81284611F046FF83
:10B6300034280AD000F22381142806D000F20D81AC
:10B64000421ED2B2042A00F20B8114480021FFF7F7
:10B650009BFC0420FFF768FC18B100210420FFF7D1
:10B6600093FC0220FFF760FC18B14FF40070FFF765
:10B670002BFD0820FFF758FC002800F0F180FFF7B1
:10B68000FDFCEDE0323D0020443400202835002050
:10B690000A000100423D00208834002060000100C3
:10B6A00038110020012C98F8003018D103B3284637
:10B6B0003CA912F045F9034600283AD19DF8F8302C
:10B6C000032B2BD09DF8F830022B7FF4B9AE00206D
:10B6D000BDF8F01000F0A8FD002824DAB0E6002B39
:10B6E000E5D19DF8713003F00703012B3FF4A8AEBC
:10B6F000284612F023F910BB07A80DF036F90028F0
:10B700007FF49EAEDDE90932BDF82010002908BFA4
:10B7100013461A7862F07F021A7091E63CA900F095
:10B72000FDFD0028CEDB284612F008F9034600286C
:10B73000E2D0022B05D155480DF098FB80E6022897
:10B74000F9D0FEE7524B186805F0CCF801214FF410
:10B750008070FFF719FC21464E4886E606F002038A
:10B760001A4304D04FF40070FFF7AEFC7FE607F0F9
:10B77000A8421A433FF47BAE4FF48050F4E749B13E
:10B7800001214FF48030FFF7FFFB21464020FFF7F7
:10B79000FBFB85E606F020030B433FF481AE40201F
:10B7A000FFF7F2FB4FF40060FFF78EFC78E61E9B7C
:10B7B000B0E6394B1B7813B9B9F1040F48D09DF8A6
:10B7C000F630002B44D00BF10203D8F800003CA95E
:10B7D000ADF8F43011F0C1FF002839D12F480DF039
:10B7E000B4F9A8BB2E4814A90CF05BFD824678BBC7
:10B7F000149868B31CA90C300DF0C5F814992748AB
:10B8000081F80090BDF804314B709DF8FE30CB708C
:10B810009DF8FF308B703C9B81F804A08B600DF08D
:10B8200035F9A8B114F0200404D001210420FFF759
:10B83000ABFBD1E6DFF86C9099F80030002B3FF4B9
:10B84000CBAED8F8000005F04DF889F80040C3E60B
:10B85000149913480CF03EFDBEE624283FF4F5AEE3
:10B86000B30504D500222846114605F0CFFA16F09C
:10B87000C00F08D15DB0BDE8F04F0DF0DFB800F0AB
:10B88000EF02442AEAE75DB0BDE8F08F95E70108D2
:10B890008834002002000100433D00203C35002098
:10B8A0002C350020423D002030B50C46154A85B0AD
:10B8B0001068516802AB002C03C304F1FF350DD1B1
:10B8C000FDF718FC2B46CDE9000102AA073412F857
:10B8D000011D03F8011FA342F9D110E02A460A4BCB
:10B8E0000A4913F801098B4202F8010FF9D1082225
:10B8F00020460DEB020110F094FE0028E0D005B0C8
:10B9000030BD00BFB4E701080900E00F0100E00FFF
:10B91000002310B50C461A4607480DF0AAFA214636
:10B92000002000F075FC054B00222146186811F03C
:10B93000B7FF00B1FEE710BDBDE701088834002065
:10B9400030B5134B87B001F1080414F8012D8C4277
:10B9500003F8012BF9D100256379A279E1790595E6
:10B960002078049060780390A0780290E0780190AD
:10B970002079009007480DF07CFA074B2A462146B3
:10B98000186811F099FF00B1FEE707B030BD00BFA5
:10B99000443D0020D6E701088834002010B50C464D
:10B9A000002206480DF065FA054B00222146186872
:10B9B00011F07CFF00B1FEE710BD00BFF8E7010801
:10B9C0008834002008B50120FFF7AEFA10B902480C
:10B9D0000DF04FFA002008BD0EE8010808B501205F
:10B9E000FFF7A2FA20B103480DF043FA002008BD8A
:10B9F0000D20FCE729E8010810B50220FFF794FAB2
:10BA0000044650B906480DF034FA20202146FFF7CD
:10BA1000BBFAFFF775FA204610BD0520FCE700BF12
:10BA20000EE8010870B50F4C0D462379834217D8F4
:10BA30006379834214D30C4E3368A3420CD00B4B72
:10BA400001220021186811F04FFD29462046FFF71A
:10BA5000AFFA3460002070BD084600F05BFBF9E7E8
:10BA60000720F8E7903400208C3400208834002030
:10BA700038B5044602200D46FFF756FAD8B9104BE8
:10BA80001B78012B17D0204600F080FB014628468A
:10BA9000FFF7C8FF044660B92846FFF7BFFA04461F
:10BAA00058B901462020FFF76FFA064B9D71064BEF
:10BAB0009D71204638BD0D24FBE70124F9E700BF46
:10BAC000503E002060110020381100202DE9F04187
:10BAD00088B00D4617461E4600F058FB04461B482A
